:100000000C9434000C9451000C9451000C94510049
:100010000C9451000C9451000C9451000C9451001C
:100020000C9451000C9451000C9451000C9451000C
:100030000C9451000C9451000C9451000C945100FC
:100040000C9451000C9451000C941E030C9451001C
:100050000C9451000C9451000C9451000C945100DC
:100060000C9451000C94510011241FBECFEFD8E026
:10007000DEBFCDBF12E0A0E0B1E0E0E9F6E102C0F2
:1000800005900D92A43BB107D9F723E0A4EBB2E0B1
:1000900001C01D92A630B207E1F70E94DD070C9463
:1000A000460B0C940000672B09F073C08E3091054D
:1000B00011F4289808958F30910511F42998089526
:1000C0008031910511F42A9808958131910511F438
:1000D0002B9808958231910511F42C98089583315D
:1000E000910511F42D9808958930910511F42E98F9
:1000F00008958A30910511F42F980895873191055C
:1001000011F4409808958831910511F441980895AB
:100110008931910511F4429808958A31910511F4BD
:10012000439808958B31910511F4449808958C31CA
:10013000910511F4459808958130910511F4469880
:1001400008958230910511F45898089583309105EF
:1001500011F4599808958430910511F45A9808952E
:100160008530910511F45B9808958630910511F45E
:100170005C9808958B30910511F45D9808958C304A
:10018000910511F45E9808950D9709F073C05F987A
:1001900008958E30910511F4289A08958F309105B5
:1001A00011F4299A08958031910511F42A9A08953D
:1001B0008131910511F42B9A08958231910511F442
:1001C0002C9A08958331910511F42D9A0895893060
:1001D000910511F42E9A08958A30910511F42F9A01
:1001E00008958731910511F4409A08958831910559
:1001F00011F4419A08958931910511F4429A0895B4
:100200008A31910511F4439A08958B31910511F4C7
:10021000449A08958C31910511F4459A08958130DE
:10022000910511F4469A08958230910511F4589A77
:1002300008958330910511F4599A089584309105F9
:1002400011F45A9A08958530910511F45B9A089536
:100250008630910511F45C9A08958B30910511F464
:100260005D9A08958C30910511F45E9A08950D976A
:1002700009F45F9A0895CF93C82F61E070E080FD84
:1002800002C070E060E08BE090E00E94530061E00B
:1002900070E0C1FD02C070E060E08CE090E00E9480
:1002A000530061E070E0C2FD02C070E060E08DE0EC
:1002B00090E00E94530061E070E0C3FD02C070E076
:1002C00060E08EE090E0CF910C945300CF93C82F64
:1002D00070E060E089E090E00E9453008C2F0E9463
:1002E0003B0161E070E08AE090E00E9453008FECF7
:1002F00097E00197F1F700C0000070E060E08AE04D
:1003000090E00E9453008FEC97E00197F1F700C056
:100310000000CF910895CF93C82F80EC8C0F859566
:100320008595859585950E9466018C2F8F70CF915C
:100330000C94660180E00E94660181E00C946601E5
:10034000CF93C62F813069F480E8860F8595859517
:10035000859585950E9466018C2F8F70CF910C94A6
:100360006601823021F4862FCF910C948B01CF91BE
:10037000089580E00E943B018FE39CE90197F1F72B
:1003800000C0000083E00E9466018FE097E20197C1
:10039000F1F700C0000083E00E9466018FEE95E552
:1003A0000197F1F700C0000083E00E94660182E03F
:1003B0000E94660182E00E94660188E00E94660158
:1003C00080E00E9466018CE00E94660180E00E944D
:1003D000660186E00C946601CF93C82F61E070E05F
:1003E00089E090E00E9453008C2F85958595859536
:1003F00085950E943B0161E070E08AE090E00E94F8
:1004000053008FEC97E00197F1F700C0000070E017
:1004100060E08AE090E00E9453008FEC97E0019743
:10042000F1F700C000008C2F8F700E943B0161E04B
:1004300070E08AE090E00E9453008FEC97E0019713
:10044000F1F700C0000070E060E08AE090E00E94F8
:1004500053008FEC97E00197F1F700C00000CF91B7
:100460000895CF93DF93EC018991811103C0DF914F
:10047000CF9108950E94EC01F7CF81E00E946601C0
:100480008CE00C94660181E00E94660188E00C9487
:1004900066019C0185B18E5F85B990E080E082178E
:1004A000930721F485B1835085B90895EFECF7E007
:1004B0003197F1F700C000000196F1CF9C01F99946
:1004C000FECF32BD21BD60BDFA9AF99A08959C0114
:1004D000F999FECF32BD21BDF89A80B50895519AA1
:1004E00050981092C50087E08093C400E1ECF0E0E2
:1004F00080818860808380818061808386E08093B2
:10050000C20078948081806880830895EF92FF9282
:100510000F931F93CF93DF930E949A01D0E0C0E026
:1005200086E7E82E81E0F82E0CEC12E032991AC032
:10053000329BFECF219660E081E00E94A001DF9314
:10054000CF93FF92EF921F930F930E9470088CEC51
:1005500092E00E9431020F900F900F900F900F9039
:100560000F90E4CF1A9904C01A9BFECF2197E3CFD6
:100570003199E1CF319BFECFCE01DF91CF911F9119
:100580000F91FF90EF900895AF92BF92CF92DF92BC
:10059000EF92FF920F931F93CF93DF93EC010E9492
:1005A0006702082F082E000C110B811102C001E018
:1005B00010E0CE01019720E3289F6001299FD00C15
:1005C000112426E0209FC001219F900D1124C80E08
:1005D000D91E8AEBA82E82E0B82EF12CE12CF50171
:1005E0006081F2E0AF0EB11CC7018C0D9D1D0E9411
:1005F0005E028FEFE81AF80AE6E0EE16F10479F7EA
:1006000061E0600FCE01DF91CF911F910F91FF90BC
:10061000EF90DF90CF90BF90AF900C945E02E0EF30
:10062000F2E0119283E0E430F807D9F70895809161
:10063000C00087FFFCCF8091C60008952F932FB78D
:100640002F934F935F938F939F93EF93FF932091FB
:10065000C6008091CA029091CB02AC014F5F5F4F00
:100660005093CB024093CA0280519D4FFC012083DE
:100670008091CA029091CB02892B31F081E090E009
:100680009093C9028093C802FF91EF919F918F913F
:100690005F914F912F912FBF2F9118959091C0008E
:1006A00095FFFCCF8093C6000895CF93DF93EC01B4
:1006B0008991811103C0DF91CF9108950E944E036B
:1006C000F7CFEF92FF920F931F93CF93DF937C01AD
:1006D0008B010E940F031092CB021092CA022FEFDF
:1006E00080E792E0215080409040E1F700C0000098
:1006F000E701F12CE12CE016F1060CF44BC08FEF72
:1007000099E628E1815090402040E1F700C00000C8
:100710008091C8029091C902019709F04CC0809164
:10072000F0028F3E09F044C08091F102813009F05F
:100730003FC08091F6028730D9F58091F90281118E
:1007400037C08091F7029091F8029827892798275F
:10075000A2EEB2E09C012E513D4FFD01E217F307DE
:1007600001F5EAEFF2E030E020E0029728173907C0
:10077000D0F090E080E01092CB021092CA0210926A
:10078000C9021092C802DF91CF911F910F91FF9083
:10079000EF90089589910E944E032FEFE21AF20A1A
:1007A000AACF1192DBCF41914D932F5F3F4FDECF08
:1007B00081E090E0E0CF81E090E0E5CFCF93DF9360
:1007C0006CE070E08AE591E00E946103892B09F0FA
:1007D00067C06DE070E08DE491E00E946103892BB9
:1007E00009F074C061E170E083E291E00E9461036E
:1007F000892B09F058C088B1885F88B988EC90E0EF
:100800000E944902C091E2028C2F90E0982F882725
:10081000C091E302C80FD92FD11DDF93CF9384E895
:1008200091E09F938F938CEC92E09F938F930E9423
:1008300070080E949A0160E081E00E94A0018CECA7
:1008400092E00E943102CE010E94C4029FEF29E68D
:1008500088E1915020408040E1F700C000000E94F4
:100860009A0160E081E00E94A0018BE891E00E9483
:10087000310280E00E948B0186E991E00E94310202
:100880009FEF23ED80E3915020408040E1F700C0CE
:10089000000043980F900F900F900F900F900F90C3
:1008A000DF91CF91089588B1885F88B90E949A013D
:1008B00060E081E00E94A00180EA92E00E943102A3
:1008C00088E893E10E9449024398EACF88B1885FA3
:1008D00088B90E949A0160E081E00E94A00180EA4C
:1008E00092E00E94310280ED97E0ECCF0E948602F8
:1008F0009C019093200180931F01982F832F909348
:100900000B0180930A01C901459690930E012B5E5D
:1009100020930F0160E170E080E091E00E946103AC
:1009200060E0892B71F581E00E94A0018091200197
:100930008F9380911F018F9381EA91E09F938F9312
:100940008CEC92E09F938F930E9470088CEC92E065
:100950000E94310280E00E948B018FEA91E00E94A8
:1009600031020F900F900F900F900F900F902FEF7C
:1009700083ED90E3215080409040E1F700C00000FB
:10098000089581E00E94A0018FEB91E00E94310266
:10099000EECFCF93DF9360E081E00E94A00185EC71
:1009A00091E00E943102D0E0C0E06AE0CE010E94F6
:1009B0005E022196CF3FD105C1F72FEF83ED90E383
:1009C000215080409040E1F700C0000060E081E0ED
:1009D0000E94A00184ED91E00E94310280E00E941B
:1009E0008B0183EE91E00E9431022FEF83ED90E3C3
:1009F000215080409040E1F700C00000DF91CF918E
:100A00000895CF93DF930E949A0160E081E00E94F5
:100A1000A0018CE492E00E9431022FEF83ED90E37D
:100A2000215080409040E1F700C000000E949A01F0
:100A300060E081E00E94A00180EF91E00E9431021D
:100A40002FEF89E698E1215080409040E1F700C007
:100A50000000D0E0C0E06CE070E08AE591E00E9428
:100A60006103892B09F0CAC00E949A018DEF91E0C1
:100A70000E9431022FEF89E698E12150804090409A
:100A8000E1F700C000006DE070E08DE491E00E94AD
:100A90006103892B09F094C00E949A0160E081E013
:100AA0000E94A00180EF91E00E94310280E00E944C
:100AB0008B018DE092E00E9431022FEF83ED90E3F5
:100AC000215080409040E1F700C000006CE070E0F1
:100AD0008AE591E00E946103892B09F071C06DE005
:100AE00070E080E491E00E946103892B09F081C0ED
:100AF0000E949A0160E081E00E94A0018DEF91E0E8
:100B00000E9431022FEF89E698E121508040904009
:100B1000E1F700C000000E949A016CE070E084E3FD
:100B200091E00E946103892B09F063C00E94860254
:100B30009C019093200180931F01982F832F909305
:100B40001C0180931B01225F20931E016FE070E067
:100B500080E191E00E946103892BF1F588EC90E03F
:100B60000E94490260E081E00E94A0018AE192E0D7
:100B70000E943102809120018F9380911F018F93F9
:100B800088E292E09F938F938CEC92E09F938F93F7
:100B90000E94700880E00E948B018CEC92E00E9421
:100BA00031022FEF89E698E1215080409040E1F733
:100BB00000C000000F900F900F900F900F900F90BB
:100BC0002FEF83ED90E3215080409040E1F700C08B
:100BD0000000DF91CF91089560E081E00E94A001C4
:100BE0008EE292E00E94310288EB9BE00E94490273
:100BF000E7CF8FEB91E00E943102E2CFC230D10506
:100C000051F40E949A0160E081E00E94A00180E41A
:100C100092E00E9431022196C330D10509F01BCF2A
:100C2000CFCF0E949A0160E081E00E94A0018AE497
:100C300092E00E94310280E00E948B018AE592E0FE
:100C40000E9431028FE19EE40197F1F700C000009D
:100C50000895482F87FF02C04FE0480F45954595FE
:100C6000459545952AE04202A0011124982F9F78CE
:100C700087FF03C09150906F9F5F9A01290F311D2C
:100C800097FD3A95C901089584EA8093BC0080914C
:100C9000BC0087FFFCCF089584E98093BC000895D1
:100CA00084EA8093BC008091BC0087FFFCCF80ED7C
:100CB0008093BB0084E88093BC008091BC0087FFD8
:100CC000FCCF1092BB0084E88093BC008091BC00F4
:100CD00087FFFCCF84EA8093BC008091BC0087FF33
:100CE000FCCF81ED8093BB0084E88093BC008091B1
:100CF000BC0087FFFCCF08958093BB0084E88093FD
:100D0000BC008091BC0087FFFCCF08950C947C064A
:100D10000C947C060C947C060C947C060C947C064B
:100D20000C947C068091BC00806C8093BC00809108
:100D3000BC0087FFFCCF8091BB000C9429068091FA
:100D4000BC0080688093BC008091BC00806480936C
:100D5000BC008091BC0087FFFCCF8091BB000C944D
:100D600029060C9492060C9492060C9492060C940C
:100D700092068091BC0080688093BC008091BC008A
:100D80008F7B8093BC008091BC0087FFFCCF80915B
:100D9000BB000C94290680ED8093BB0084E880930F
:100DA000BC008091BC0087FFFCCF1092BB0084E8A0
:100DB0008093BC008091BC0087FFFCCF08950E9407
:100DC00044060E94CB0680E00E947C0689E40E94D3
:100DD0007C0682E20E947C0681E00E947C0686E11D
:100DE0000E947C0688E00E947C0680E20E947C06CD
:100DF00084E98093BC000895EF92FF920F931F93B4
:100E0000CF93DF93CDB7DEB764970FB6F894DEBF0C
:100E10000FBECDBF8091BB028F938091BA028F939A
:100E200088E8E82E81E0F82EFF92EF928E010F5FA6
:100E30001F4F1F930F930E94700860E081E00E9493
:100E4000A0018AE692E00E943102C8010E943102AC
:100E50008EE692E00E9431028091BD028F938091D4
:100E6000BC028F93FF92EF921F930F930E94700822
:100E7000C8010E9431028EE692E00E943102809108
:100E8000BF028F938091BE028F93FF92EF921F93C8
:100E90000F930E947008C8010E94310286E192E01F
:100EA0000E94310280E00E948B0180E792E00E9464
:100EB00031028091C1028F938091C0028F93FF9283
:100EC000EF921F930F930E947008C8010E94310295
:100ED00086E792E00E9431028091C3028F93809155
:100EE000C2028F93FF92EF921F930F930E9470089C
:100EF000C8010E94310286E792E00E94310280918F
:100F0000C5028F938091C4028F93FF92EF921F933B
:100F10000F930E9470080FB6F894DEBF0FBECDBFCE
:100F200088E792E00E9431028091C4029091C5024C
:100F30000A9724F489E792E00E943102C8010E94D6
:100F4000310286E192E00E94310264960FB6F89475
:100F5000DEBF0FBECDBFDF91CF911F910F91FF90EC
:100F6000EF900895CF93DF930E9450060E9492065F
:100F7000CAEBD2E09D838C830E949F069B838A8369
:100F80000E949206998388830E9492069093EF02B2
:100F90008093EE020E9492069F838E830E949206A7
:100FA000998788870E94B9069B878A8784E98093FE
:100FB000BC00DF91CF910C94FC0684B1836C84B9A2
:100FC0002A9A87B187B988B1876088B98AB1826E59
:100FD0008AB95A9A0E94B9010E949A0160E081E0A0
:100FE0000E94A0010E94DF060E946F028BE792E040
:100FF0000E94310280E00E948B018CE892E00E9406
:1010000031022FEF83ED90E3215080409040E1F7D3
:1010100000C00000319B0E94C9040E949A011092F6
:10102000CB021092CA0260E170E086E691E00E9475
:10103000610360E0892B99F581E00E94A0018AEAB2
:1010400092E00E9431022FEF89E698E12150804022
:101050009040E1F700C000000E9411062FEF83EDE1
:1010600090E3215080409040E1F700C0000060E034
:1010700081E00E94A0010E94B2070E94DE03309925
:101080001FC0309BFECF0E9401052FEF83ED90E340
:10109000215080409040E1F700C00000ECCF81E09B
:1010A0000E94A0018DE992E00E9431022FEF83EDB2
:1010B00090E3215080409040E1F700C00000AFCFA6
:1010C0003199D9CF319BFECF0E9486020E947604CF
:1010D0002FEF89E698E1215080409040E1F7DCCF86
:1010E000AEE0B0E0E6E7F8E00C941D0B0D891E8938
:1010F00086E08C831A8309838FEF9FE79E838D831D
:10110000AE01475E5F4F6F89788DCE0101960E94D8
:1011100093082F813885020F131FF80110822E9635
:10112000E4E00C94390BAFE0B0E0E9E9F8E00C94AE
:101130000F0B7C013B018A01DC0117961C921E9269
:10114000169713968C9181FFC3C19AE0292EFE0158
:1011500031964F01D70113969C91F30193FD859130
:1011600093FF81913F01882309F448C1853239F406
:1011700093FD859193FF81913F01853229F4B70159
:1011800090E00E94810AE6CFB12C412C512CBFE1A6
:10119000B51538F08B3209F188F4803201F18332D1
:1011A00021F157FC3AC020ED280F2A3040F556FEB9
:1011B0001FC0B29C200D1124B22E06C08D3291F0BA
:1011C000803379F7689450F8F30193FD859193FF8C
:1011D00081913F018111DBCF20C0689451F8689460
:1011E00052F8F2CF689453F8EFCF689454F8ECCFEC
:1011F000429C200D1124422E689455F8E5CF8E3282
:1012000029F456FCFBC0689456F8DECF8C3619F4EE
:10121000689457F8D9CF8836B9F2982F9F7D9554A6
:101220009330C0F08336A1F18337C1F1833509F0E3
:101230005BC0D801CD90DD908D016B2D70E056FC28
:1012400002C06FEF7FEFC6010E946B0A5C016894D9
:1012500057F80AC00C5F1F4FEFE3E983AA24A39459
:10126000B12C6401E89457F853FC04C04A141B04E1
:1012700009F018F5342CA114B10431F5332009F428
:1012800069CFB70180E290E00E94810A3A94F6CFDC
:10129000D8018C9189830E5F1F4FE0CFF801C19078
:1012A000D1908F016B2D70E056FC02C06FEF7FEF85
:1012B000C6010E94760A5C01D5CFB70180E290E0BA
:1012C0000E94810A4A94D2CFF60157FC859157FEBD
:1012D00081916F01B70190E00E94810A31103A9428
:1012E000B1E0AB1AB108C7CF843619F0893609F0DE
:1012F00074C0F80157FE6AC061917191819191911A
:101300008F01E52DEF76DE2E97FF09C09095809531
:10131000709561957F4F8F4F9F4F6894D7F82AE063
:1013200030E0A4010E94B10AC82EC818AC2C5D2C74
:10133000D6FE0CC0E89450F8CB1440F4D4FE05C09F
:10134000D2FC03C05D2D5E7E552EAB2C54FE98C0A2
:10135000FE01EC0DF11D8081803309F08AC0652DFE
:10136000697E562E752D7870372E53FC98C050FE2E
:1013700092C0BC2CA41418F44C0CB42CBA1854FE13
:1013800094C0B70180E390E00E94810A52FE09C038
:1013900088E790E051FE02C088E590E0B7010E9426
:1013A000810ACB1408F48DC0CA94D12C8FEFC81ACF
:1013B000D80AC80CD91CD6018E916D01B70190E0F6
:1013C0000E94810A8C149D04B1F758CF61917191EC
:1013D000072E000C880B990B93CFD52CE894D4F8EA
:1013E0002AE030E0853739F1F52DF97FDF2E80379F
:1013F000A9F058F48835A9F08F36D9F0F701868125
:1014000097812F96E2E10C942B0B8837B9F7D4FE25
:1014100002C06894D2F820E130E00DC06894D4F89E
:10142000F6CF54FE03C02F2F2660D22E20E132E0EB
:1014300002C028E030E0F801D7FE15C0419151917B
:10144000619171914C875D876E877F878F01A401C1
:101450006C857D858E859F850E94B10AC82EC8182F
:10146000E894D7F863CF81919191AC0170E060E08E
:10147000E9CF52FC02C0A39475CFA394A39472CF7A
:10148000852D867809F46ECFF6CFB70180E290E023
:101490000E94810AA394A414C0F3312C70CF342C81
:1014A0003A18A41408F46BCFF8CF852D867809F488
:1014B00078CF8BE251FE80E257FC8DE2B70190E0DD
:1014C0006ECFB70180E390E00E94810ABA9469CFA1
:1014D0008FEF9FEF96CFFC01059061507040011097
:1014E000D8F7809590958E0F9F1F0895FC0161504D
:1014F000704001900110D8F7809590958E0F9F1F36
:1015000008950F931F93CF93DF93182F092FEB01AB
:101510008B8181FD09C01FEF0FEF812F902FDF918D
:10152000CF911F910F91089582FF14C02E813F81AA
:101530008C819D81281739073CF4E881F981CF011E
:1015400001969983888310838E819F8101969F8362
:101550008E83E3CFE885F985812F0995892BA1F347
:10156000DACFFA01AA27283051F1203181F1E8942D
:101570006F936E7F6E5F7F4F8F4F9F4FAF4FB1E086
:101580003ED0B4E03CD0670F781F891F9A1FA11D81
:10159000680F791F8A1F911DA11D6A0F711D811D82
:1015A000911DA11D20D009F468943F912AE0269F47
:1015B00011243019305D3193DEF6CF010895462FA6
:1015C0004770405D4193B3E00FD0C9F7F6CF462F87
:1015D0004F70405D4A3318F0495D31FD40524193F0
:1015E00002D0A9F7EACFB4E0A695979587957795AD
:1015F0006795BA95C9F700976105710508959B0134
:10160000AC010A2E06945795479537952795BA95BC
:10161000C9F7620F731F841F951FA01D08952F9295
:101620003F924F925F926F927F928F929F92AF9272
:10163000BF92CF92DF92EF92FF920F931F93CF93BF
:10164000DF93CDB7DEB7CA1BDB0B0FB6F894DEBF56
:101650000FBECDBF09942A88398848885F846E847C
:101660007D848C849B84AA84B984C884DF80EE80C6
:10167000FD800C811B81AA81B981CE0FD11D0FB6CF
:10168000F894DEBF0FBECDBFED010895F894FFCFF3
:10169000EF01FFFFFFFF0100070C00000001001534
:1016A000EF01FFFFFFFF01000606010001000E0130
:1016B000000100EF01FFFFFFFF010008040100002F
:1016C00000A300B1EF01FFFFFFFF010003050009C8
:1016D000EF01FFFFFFFF01000402020009EF01FF1D
:1016E000FFFFFF01000402010008EF01FFFFFFFF01
:1016F000010003010005EF01FFFFFFFF01000713D9
:1017000000000000001B456E7465722049643A2594
:101710006420200049643A20256400417474656E99
:1017200064616E63650052656769737465726564B0
:101730000046696E67657220494420256420004494
:10174000656C6574656420537563636573730045E8
:1017500072726F7200506C656173652057616974B5
:101760002E2E2E005265636F72642044656C657482
:101770006564005375636365737366756C6C79009B
:10178000506C6163652046696E6765720046696EDC
:101790006765722044657465637465640020202069
:1017A00020416761696E2020200046696E6765727E
:1017B0002053746F7265640049643A256400466979
:1017C0006E676572204E6F742053746F726564008B
:1017D0004E6F2046696E67657200312D456E726FDF
:1017E0006C6C2046696E67657200322D64656C65AD
:1017F00074652046696E6765720054696D653A00CC
:10180000446174653A002F00323000417474656E93
:1018100064616E636520537973746D005573696EEE
:10182000672041565220616E642046500046502089
:101830004E6F7420466F756E6400465020466F757B
:041840006E640000D2
:00000001FF
