:100000000C9434000C9451000C9451000C94510049
:100010000C9451000C9451000C9451000C9451001C
:100020000C9451000C9451000C9451000C9451000C
:100030000C9451000C9451000C9451000C945100FC
:100040000C9451000C9451000C9451000C945100EC
:100050000C9451000C9451000C9451000C945100DC
:100060000C9451000C94510011241FBECFEFD8E026
:10007000DEBFCDBF11E0A0E0B1E0E0E0FEE002C0F5
:1000800005900D92A43BB107D9F722E0A4EBB1E0B3
:1000900001C01D92A630B207E1F70E940A040C9439
:1000A000FE060C940000672B09F073C08E3091059A
:1000B00011F4289808958F30910511F42998089526
:1000C0008031910511F42A9808958131910511F438
:1000D0002B9808958231910511F42C98089583315D
:1000E000910511F42D9808958930910511F42E98F9
:1000F00008958A30910511F42F980895873191055C
:1001000011F4409808958831910511F441980895AB
:100110008931910511F4429808958A31910511F4BD
:10012000439808958B31910511F4449808958C31CA
:10013000910511F4459808958130910511F4469880
:1001400008958230910511F45898089583309105EF
:1001500011F4599808958430910511F45A9808952E
:100160008530910511F45B9808958630910511F45E
:100170005C9808958B30910511F45D9808958C304A
:10018000910511F45E9808950D9709F073C05F987A
:1001900008958E30910511F4289A08958F309105B5
:1001A00011F4299A08958031910511F42A9A08953D
:1001B0008131910511F42B9A08958231910511F442
:1001C0002C9A08958331910511F42D9A0895893060
:1001D000910511F42E9A08958A30910511F42F9A01
:1001E00008958731910511F4409A08958831910559
:1001F00011F4419A08958931910511F4429A0895B4
:100200008A31910511F4439A08958B31910511F4C7
:10021000449A08958C31910511F4459A08958130DE
:10022000910511F4469A08958230910511F4589A77
:1002300008958330910511F4599A089584309105F9
:1002400011F45A9A08958530910511F45B9A089536
:100250008630910511F45C9A08958B30910511F464
:100260005D9A08958C30910511F45E9A08950D976A
:1002700009F45F9A0895CF93C82F61E070E080FD84
:1002800002C070E060E08BE090E00E94530061E00B
:1002900070E0C1FD02C070E060E08CE090E00E9480
:1002A000530061E070E0C2FD02C070E060E08DE0EC
:1002B00090E00E94530061E070E0C3FD02C070E076
:1002C00060E08EE090E0CF910C945300CF93C82F64
:1002D00070E060E089E090E00E9453008C2F0E9463
:1002E0003B0161E070E08AE090E00E9453008FECF7
:1002F00097E00197F1F700C0000070E060E08AE04D
:1003000090E00E9453008FEC97E00197F1F700C056
:100310000000CF91089580E00E94660181E00C9476
:100320006601CF93C62F813069F480E88C0F8595E4
:100330008595859585950E9466018C2F8F70CF914C
:100340000C946601823011F480ECF0CFCF910895C7
:1003500080E00E943B018FE39CE90197F1F700C028
:10036000000083E00E9466018FE097E20197F1F7B9
:1003700000C0000083E00E9466018FEE95E50197C2
:10038000F1F700C0000083E00E94660182E00E9455
:10039000660182E00E94660188E00E94660180E0BA
:1003A0000E9466018CE00E94660180E00E94660166
:1003B00086E00C946601CF93C82F61E070E089E07D
:1003C00090E00E9453008C2F8595859585958595A5
:1003D0000E943B0161E070E08AE090E00E945300DF
:1003E0008FEC97E00197F1F700C0000070E060E04B
:1003F0008AE090E00E9453008FEC97E00197F1F7BC
:1004000000C000008C2F8F700E943B0161E070E003
:100410008AE090E00E9453008FEC97E00197F1F79B
:1004200000C0000070E060E08AE090E00E945300AD
:100430008FEC97E00197F1F700C00000CF9108958D
:10044000CF93DF93EC018991811103C0DF91CF91AC
:1004500008950E94DB01F7CF81E00E9466018CE0E5
:100460000C94660181E00E94660188E00C946601AC
:10047000482F87FF02C04FE0480F459545954595A9
:1004800045952AE04202A0011124982F9F7887FF0A
:1004900003C09150906F9F5F9A01290F311D97FD06
:1004A0003A95C901089584EA8093BC008091BC000C
:1004B00087FFFCCF089584E98093BC00089584EA07
:1004C0008093BC008091BC0087FFFCCF80ED8093BF
:1004D000BB0084E88093BC008091BC0087FFFCCF08
:1004E0001092BB0084E88093BC008091BC0087FF21
:1004F000FCCF84EA8093BC008091BC0087FFFCCFD6
:1005000081ED8093BB0084E88093BC008091BC00A7
:1005100087FFFCCF08958093BB0084E88093BC00E4
:100520008091BC0087FFFCCF08950C948B020C9443
:100530008B020C948B020C948B020C948B020C9407
:100540008B028091BC00806C8093BC008091BC00C9
:1005500087FFFCCF8091BB000C9438028091BC00D7
:1005600080688093BC008091BC0080648093BC0054
:100570008091BC0087FFFCCF8091BB000C943802B7
:100580000C94A1020C94A1020C94A1020C94A1025F
:100590008091BC0080688093BC008091BC008F7B00
:1005A0008093BC008091BC0087FFFCCF8091BB0092
:1005B0000C94380280ED8093BB0084E88093BC00EB
:1005C0008091BC0087FFFCCF1092BB0084E8809331
:1005D000BC008091BC0087FFFCCF08950E948B0176
:1005E00086E791E00E9420022FEF81E19AE72150F7
:1005F00080409040E1F700C00000089508950E94F7
:1006000053020E94DA020E948B0160E081E00E94A6
:10061000910189E791E00E9420028CEF0E9466011F
:1006200080E00E9466018AE891E00E9420023099F1
:1006300008C0309BFECF0E94EE0284E98093BC008C
:1006400008953199E2CF319BFECFF7CFEF92FF9221
:100650000F931F93CF93DF93CDB7DEB764970FB699
:10066000F894DEBF0FBECDBF8091BB018F93809108
:10067000BA018F938BE9E82E81E0F82EFF92EF927A
:100680008E010F5F1F4F1F930F930E94280460E09D
:1006900081E00E9491018EE991E00E942002C80150
:1006A0000E94200282EA91E00E9420028091BD0116
:1006B0008F938091BC018F93FF92EF921F930F93C2
:1006C0000E942804C8010E94200282EA91E00E9450
:1006D00020028091BF018F938091BE018F93FF9282
:1006E000EF921F930F930E942804C8010E942002DA
:1006F00080EB91E00E9420028CEF0E94660180E076
:100700000E94660184EA91E00E9420028091C1016A
:100710008F938091C0018F93FF92EF921F930F935D
:100720000E942804C8010E9420028AEA91E00E94E7
:1007300020028091C3018F938091C2018F93FF9219
:10074000EF921F930F930E942804C8010E94200279
:100750008AEA91E00E9420028091C5018F938091E6
:10076000C4018F93FF92EF921F930F930E9428046E
:100770000FB6F894DEBF0FBECDBF8CEA91E00E94A9
:1007800020028091C4019091C5010A9724F490E061
:1007900080E00E942002C8010E9420028FEA91E0BE
:1007A0000E94200264960FB6F894DEBF0FBECDBF44
:1007B000DF91CF911F910F91FF90EF900895CF930C
:1007C000DF930E945F020E94A102CAEBD1E09D83E9
:1007D0008C830E94AE029B838A830E94A10299832C
:1007E00088830E94A1029093EF018093EE010E9402
:1007F000A1029F838E830E94A102998788870E940D
:10080000C8029B878A8784E98093BC00DF91CF91DF
:100810000C94260384B1836C84B92A9A87B187B972
:1008200088B1876088B98AB1826E8AB95A9A0E9463
:10083000A8010E948B0160E081E00E9491010E946A
:10084000DF034A99FCCF4A9BFECF0E94FF02F7CFFD
:10085000AEE0B0E0EEE2F4E00C94D5060D891E891E
:1008600086E08C831A8309838FEF9FE79E838D83B5
:10087000AE01475E5F4F6F89788DCE0101960E9471
:100880004B042F813885020F131FF80110822E961A
:10089000E4E00C94F106AFE0B0E0E1E5F4E00C94A4
:1008A000C7067C013B018A01DC0117961C921E924F
:1008B000169713968C9181FFC3C19AE0292EFE01F1
:1008C00031964F01D70113969C91F30193FD8591C9
:1008D00093FF81913F01882309F448C1853239F49F
:1008E00093FD859193FF81913F01853229F4B701F2
:1008F00090E00E943906E6CFB12C412C512CBFE18B
:10090000B51538F08B3209F188F4803201F1833269
:1009100021F157FC3AC020ED280F2A3040F556FE51
:100920001FC0B29C200D1124B22E06C08D3291F052
:10093000803379F7689450F8F30193FD859193FF24
:1009400081913F018111DBCF20C0689451F86894F8
:1009500052F8F2CF689453F8EFCF689454F8ECCF84
:10096000429C200D1124422E689455F8E5CF8E321A
:1009700029F456FCFBC0689456F8DECF8C3619F487
:10098000689457F8D9CF8836B9F2982F9F7D95543F
:100990009330C0F08336A1F18337C1F1833509F07C
:1009A0005BC0D801CD90DD908D016B2D70E056FCC1
:1009B00002C06FEF7FEFC6010E9423065C016894BE
:1009C00057F80AC00C5F1F4FEFE3E983AA24A394F2
:1009D000B12C6401E89457F853FC04C04A141B047A
:1009E00009F018F5342CA114B10431F5332009F4C1
:1009F00069CFB70180E290E00E9439063A94F6CFC1
:100A0000D8018C9189830E5F1F4FE0CFF801C19010
:100A1000D1908F016B2D70E056FC02C06FEF7FEF1D
:100A2000C6010E942E065C01D5CFB70180E290E09E
:100A30000E9439064A94D2CFF60157FC859157FEA1
:100A400081916F01B70190E00E94390631103A940C
:100A5000B1E0AB1AB108C7CF843619F0893609F076
:100A600074C0F80157FE6AC06191719181919191B2
:100A70008F01E52DEF76DE2E97FF09C090958095CA
:100A8000709561957F4F8F4F9F4F6894D7F82AE0FC
:100A900030E0A4010E946906C82EC818AC2C5D2C59
:100AA000D6FE0CC0E89450F8CB1440F4D4FE05C038
:100AB000D2FC03C05D2D5E7E552EAB2C54FE98C03B
:100AC000FE01EC0DF11D8081803309F08AC0652D97
:100AD000697E562E752D7870372E53FC98C050FEC7
:100AE00092C0BC2CA41418F44C0CB42CBA1854FEAC
:100AF00094C0B70180E390E00E94390652FE09C01D
:100B000088E790E051FE02C088E590E0B7010E94BE
:100B10003906CB1408F48DC0CA94D12C8FEFC81AB3
:100B2000D80AC80CD91CD6018E916D01B70190E08E
:100B30000E9439068C149D04B1F758CF61917191D0
:100B4000072E000C880B990B93CFD52CE894D4F882
:100B50002AE030E0853739F1F52DF97FDF2E803737
:100B6000A9F058F48835A9F08F36D9F0F7018681BD
:100B700097812F96E2E10C94E3068837B9F7D4FE0B
:100B800002C06894D2F820E130E00DC06894D4F837
:100B9000F6CF54FE03C02F2F2660D22E20E132E084
:100BA00002C028E030E0F801D7FE15C04191519114
:100BB000619171914C875D876E877F878F01A4015A
:100BC0006C857D858E859F850E946906C82EC81814
:100BD000E894D7F863CF81919191AC0170E060E027
:100BE000E9CF52FC02C0A39475CFA394A39472CF13
:100BF000852D867809F46ECFF6CFB70180E290E0BC
:100C00000E943906A394A414C0F3312C70CF342C65
:100C10003A18A41408F46BCFF8CF852D867809F420
:100C200078CF8BE251FE80E257FC8DE2B70190E075
:100C30006ECFB70180E390E00E943906BA9469CF85
:100C40008FEF9FEF96CFFC0105906150704001102F
:100C5000D8F7809590958E0F9F1F0895FC016150E5
:100C6000704001900110D8F7809590958E0F9F1FCE
:100C700008950F931F93CF93DF93182F092FEB0144
:100C80008B8181FD09C01FEF0FEF812F902FDF9126
:100C9000CF911F910F91089582FF14C02E813F8143
:100CA0008C819D81281739073CF4E881F981CF01B7
:100CB00001969983888310838E819F8101969F83FB
:100CC0008E83E3CFE885F985812F0995892BA1F3E0
:100CD000DACFFA01AA27283051F1203181F1E894C6
:100CE0006F936E7F6E5F7F4F8F4F9F4FAF4FB1E01F
:100CF0003ED0B4E03CD0670F781F891F9A1FA11D1A
:100D0000680F791F8A1F911DA11D6A0F711D811D1A
:100D1000911DA11D20D009F468943F912AE0269FDF
:100D200011243019305D3193DEF6CF010895462F3E
:100D30004770405D4193B3E00FD0C9F7F6CF462F1F
:100D40004F70405D4A3318F0495D31FD4052419388
:100D500002D0A9F7EACFB4E0A69597958795779545
:100D60006795BA95C9F700976105710508959B01CC
:100D7000AC010A2E06945795479537952795BA9555
:100D8000C9F7620F731F841F951FA01D08952F922E
:100D90003F924F925F926F927F928F929F92AF920B
:100DA000BF92CF92DF92EF92FF920F931F93CF9358
:100DB000DF93CDB7DEB7CA1BDB0B0FB6F894DEBFEF
:100DC0000FBECDBF09942A88398848885F846E8415
:100DD0007D848C849B84AA84B984C884DF80EE805F
:100DE000FD800C811B81AA81B981CE0FD11D0FB668
:100DF000F894DEBF0FBECDBFED010895F894FFCF8C
:100E0000EF01FFFFFFFF0100070C000000010015CC
:100E1000EF01FFFFFFFF01000606010001000E01C8
:100E2000000100EF01FFFFFFFF0100081B010000B0
:100E300000A300C8EF01FFFFFFFF01000305000949
:100E4000EF01FFFFFFFF01000402020009EF01FFB5
:100E5000FFFFFF01000402010008EF01FFFFFFFF99
:100E6000010003010005EF01FFFFFFFF0100071371
:100E700000000000001B4869005072657373203148
:100E800020666F722074696D6500507265737320FF
:100E90003220666F722064617465002564005469B5
:100EA0006D653A00446174653A002F0032300020CD
:040EB00020200000FE
:00000001FF
