:100000000C9434000C9449000C9449000C94490061
:100010000C9449000C9449000C9449000C9449003C
:100020000C9449000C9449000C9449000C9449002C
:100030000C9449000C9449000C9449000C9449001C
:100040000C9449000C9449000C9449000C9449000C
:100050000C9449000C9449000C9449000C944900FC
:100060000C9449000C94490011241FBECFEFD8E036
:10007000DEBFCDBF11E0A0E0B1E0E4E8F4E002C0F3
:1000800005900D92A031B107D9F70E9430020C946F
:1000900040020C940000672B09F073C08E3091056C
:1000A00011F4289808958F30910511F42998089536
:1000B0008031910511F42A9808958131910511F448
:1000C0002B9808958231910511F42C98089583316D
:1000D000910511F42D9808958930910511F42E9809
:1000E00008958A30910511F42F980895873191056C
:1000F00011F4409808958831910511F441980895BC
:100100008931910511F4429808958A31910511F4CD
:10011000439808958B31910511F4449808958C31DA
:10012000910511F4459808958130910511F4469890
:1001300008958230910511F45898089583309105FF
:1001400011F4599808958430910511F45A9808953E
:100150008530910511F45B9808958630910511F46E
:100160005C9808958B30910511F45D9808958C305A
:10017000910511F45E9808950D9709F073C05F988A
:1001800008958E30910511F4289A08958F309105C5
:1001900011F4299A08958031910511F42A9A08954D
:1001A0008131910511F42B9A08958231910511F452
:1001B0002C9A08958331910511F42D9A0895893070
:1001C000910511F42E9A08958A30910511F42F9A11
:1001D00008958731910511F4409A08958831910569
:1001E00011F4419A08958931910511F4429A0895C4
:1001F0008A31910511F4439A08958B31910511F4D8
:10020000449A08958C31910511F4459A08958130EE
:10021000910511F4469A08958230910511F4589A87
:1002200008958330910511F4599A08958430910509
:1002300011F45A9A08958530910511F45B9A089546
:100240008630910511F45C9A08958B30910511F474
:100250005D9A08958C30910511F45E9A08950D977A
:1002600009F45F9A0895CF93C82F61E070E080FD94
:1002700002C070E060E08BE090E00E944B0061E023
:1002800070E0C1FD02C070E060E08CE090E00E9490
:100290004B0061E070E0C2FD02C070E060E08DE004
:1002A00090E00E944B0061E070E0C3FD02C070E08E
:1002B00060E08EE090E0CF910C944B00CF93C82F7C
:1002C00070E060E089E090E00E944B008C2F0E947B
:1002D000330161E070E08AE090E00E944B008FEC17
:1002E00097E00197F1F700C0000070E060E08AE05D
:1002F00090E00E944B008FEC97E00197F1F700C06F
:100300000000CF91089580E00E945E0181E00C948E
:100310005E01CF93C62F813069F480E88C0F8595FC
:100320008595859585950E945E018C2F8F70CF9164
:100330000C945E01823011F480ECF0CFCF910895DF
:1003400080E00E9433018FE39CE90197F1F700C040
:10035000000083E00E945E018FE097E20197F1F7D1
:1003600000C0000083E00E945E018FEE95E50197DA
:10037000F1F700C0000083E00E945E0182E00E946D
:100380005E0182E00E945E0188E00E945E0180E0E2
:100390000E945E018CE00E945E0180E00E945E018E
:1003A00086E00C945E01CF93C82F61E070E089E095
:1003B00090E00E944B008C2F8595859585958595BD
:1003C0000E94330161E070E08AE090E00E944B00FF
:1003D0008FEC97E00197F1F700C0000070E060E05B
:1003E0008AE090E00E944B008FEC97E00197F1F7D4
:1003F00000C000008C2F8F700E94330161E070E01C
:100400008AE090E00E944B008FEC97E00197F1F7B3
:1004100000C0000070E060E08AE090E00E944B00C5
:100420008FEC97E00197F1F700C00000CF9108959D
:10043000CF93DF93EC018991811103C0DF91CF91BC
:1004400008950E94D301F7CF81E00E945E018CE005
:100450000C945E0181E00E945E0188E00C945E01D4
:100460008FEF8AB984B90E94A0010E94830161E0E4
:1004700081E00E94890180E091E00E941802F7CF9C
:04048000F894FFCF1E
:100484004C43442048656C6C6F20576F726C640059
:00000001FF
